8=FIX.4.2|9=78|35=A|34=1|49=ACCEPTOR|52=20250306-14:54:28.000|56=INITIATOR|98=0|108=30|141=Y|10=046|8=FIX.4.2|9=158|35=8|34=2|49=ACCEPTOR|52=20250306-14:54:28.000|56=INITIATOR|6=200|11=clordid|14=100|17=00001|20=0|31=200|32=100|37=00001|38=100|39=2|54=1|55=AAPL|150=2|151=0|10=241|8=FIX.4.2|9=60|35=0|34=3|49=ACCEPTOR|52=20250306-14:54:58.000|56=INITIATOR|10=211|